:03000000020457A0
:0C045700787FE4F6D8FD75815902049E00
:1005BA00011D00011F0014090000000000000000D6
:0C05CA0000000000000000000000000025
:0B06FB0012066912014712002680F869
:1006AC00EF1FAA0670011E4A600DE4FDC3ED6480C5
:0706BC0094FB50EC0D80F5EA
:0106C3002214
:0605D60001550001540074
:1006190030B00C30B10930B20630B303E4F55530CF
:10062900B00930B10630B20320B3327F017E001227
:1006390006AC30B00930B10630B20320B31FE5551E
:10064900701B75550120B0037F012220B1037F0281
:100659002220B2037F032220B3037F04227F0022DA
:10014700120619EF24FE60221460311470030201B5
:10015700DC240360030202391554C3E55464809418
:10016700804003020239755403220554D3E55464D1
:100177008094835003020239E4F55422E554B40114
:1001870018053FE53F7002053EC39418E53E6480BD
:1001970094804005E4F53EF53FE554B4021805495F
:1001A700E54970020548C3943CE548648094804063
:1001B70005E4F548F549E55464037076053DE53DEA
:1001C7007002053CC3943CE53C648094804063E442
:1001D700F53CF53D22E554B4011AE53F153F7002A1
:1001E700153E14D394FFE53E6480947F5006753E18
:1001F70000753F17E554B4021AE549154970021511
:100207004814D394FFE5486480947F5006754800EE
:1002170075493BE554B4031AE53D153D7002153C9D
:1002270014D394FFE53C6480947F5006753C0075B9
:030237003D3B222A
:10000E00FEFDFBF7EFDFBF7FFF3F065B4F666D7DAB
:05001E00077F6F4000A8
:1005DC00014A0008400000000000000000023A0040
:0D05EC0000023E000A02480000023C000030
:10068E007580FFD2A7C2A7EF90001793F580D2A670
:0E069E00C2A6ED90000E93F580D2A7C2A7224F
:10002600E53BAE3A7803CEA2E713CE13D8F87803B1
:10003600C333CE33CED8F9FFC3E53B9FFFE53A9EE7
:10004600AB07FAC3E53B94F4E53A64809481500D1E
:10005600C3E53A6480948040047F0080027F018F6C
:1000660039EA6003020146EBB40800400302014688
:1000760090007DF82828730200950200B10200CD99
:100086000200CF0200E90200CD02010C020126E5C2
:1000960039600AE554B401057F0B020140AE3EAF5C
:1000A6003F7C007D0A1202F3020140E5396009E552
:1000B60054B401047F0B800DAE3EAF3F7C007D0A39
:1000C6001202F3AF0580738036E5396009E554B452
:1000D60002047F0B800BAE48AF497C007D0A1202FA
:1000E600F38057E5396009E554B402047F0B800DAF
:1000F600AE48AF497C007D0A1202F3AF05803B741F
:10010600402BF8760A22E5396009E554B403047FEA
:100116000B800BAE3CAF3D7C007D0A1202F3801AC9
:10012600E5396009E554B403047F0B800DAE3CAF9E
:100136003D7C007D0A1202F3AF0574402BF8A6073A
:010146002296
:1005F900013600013800142200000000000000004C
:0C060900000000000000000000000000E5
:0300230002055A79
:10055A00C0E0C0F0C083C082C0D075D000C000C067
:0D056A0001C002C003C004C005C006C007E8
:10057700309823AF99EF642A600CAE38053874229F
:100587002EF8A607801074222538F876001204E3A7
:08059700753800755400C2988C
:10059F00D007D006D005D004D003D002D001D000B0
:0B05AF00D0D0D082D083D0F0D0E0325A
:1004E300E4F54CF54D7B007A0079221206C4C3E58E
:1004F3004D9FE54C9E505F7422254DF8E624936092
:100503001F24FA6032240B7043054DE54D7002053C
:100513004C2422F9E4FAFB1203A98E3E8F3F802C70
:10052300054DE54D7002054C2422F9E4FAFB120354
:10053300A98E488F498015054DE54D7002054C2461
:1005430022F9E4FAFB1203A98E3C8F3D054DE54DDC
:060553007093054C808F3F
:01055900227F
:0306150001580089
:10066900438780759850438901438920758BF475B8
:100679008DF4C2ABD28E758CFC758A67D2AFD2ACC1
:05068900D2A9D28C2271
:03000B0002023AB4
:10023A00C0E0C0F0C083C082C0D075D000C000C08A
:10024A0001C002C003C004C005C006C007758CFC0B
:10025A00758A67053BE53B7002053AC394E8E53ABF
:10026A0064809483404E753A00753B00053DE53D38
:10027A007002053C943CE53C648094804036753CB1
:10028A0000753D000549E54970020548943CE5487A
:10029A0064809480401E754800754900053FE53F1B
:1002AA007002053E9418E53E648094804006753ECF
:1002BA0000753F000559C3E5596480948840037569
:1002CA00590074402559F8E6FFAD5912068ED00739
:1002DA00D006D005D004D003D002D001D000D0D0AF
:0902EA00D082D083D0F0D0E032C4
:100463000206FBE493A3F8E493A34003F68001F2AE
:1004730008DFF48029E493A3F85407240CC8C3339A
:10048300C4540F4420C8834004F456800146F6DF69
:10049300E4800B01020408102040809005BAE47E3A
:1004A300019360BCA3FF543F30E509541FFEE4935E
:1004B300A360010ECF54C025E060A840B8E493A325
:1004C300FAE493A3F8E493A3C8C582C8CAC583CA50
:1004D300F0A3C8C582C8CAC583CADFE9DEE780BE08
:0106180000E1
:1002F300C2D5EC30E709B2D5E4C39DFDE49CFCEE26
:1003030030E715B2D5E4C39FFFE49EFE120354C346
:10031300E49DFDE49CFC800312035430D507C3E441
:060323009FFFE49EFE2294
:1006C400E4FFFE120329600C0FEF70010E09E970BC
:0506D400F20A80EF2294
:1003A9008B4E8A4F8950AB4EAA4FA950120329FF91
:1003B9001206D9500D74012550F550E4354FF54F0B
:1003C90080E4D200AB4EAA4FA950120329FF642B37
:1003D9006004EFB42D1BAB4E0550E550AA4F7002D7
:1003E900054F14F9120329642D6003D38001C392C8
:1003F90000E4F551F552AB4EAA4FA950120329FF5B
:100409001206EC5036AB4EAA4FA950120329FF33FE
:1004190095E0FEEF24D0FBEE34FFFAAE51AF527CEB
:10042900007D0A120342EF2BF552EE3AF5517401A1
:100439002550F550E4354FF54F80BB300006AE51DD
:0E044900AF528009C3E49552FFE49551FE22A4
:10032900BB010689828A83E0225002E722BBFE02D2
:09033900E32289828A83E4932205
:10034200EF8DF0A4A8F0CF8CF0A428CE8DF0A42ECF
:02035200FE2289
:10035400BC000BBE0029EF8DF084FFADF022E4CC8D
:10036400F875F008EF2FFFEE33FEEC33FCEE9DEC56
:10037400984005FCEE9DFE0FD5F0E9E4CEFD22ED9C
:10038400F8F5F0EE8420D21CFEADF075F008EF2FE6
:10039400FFED33FD4007985006D5F0F222C398FDD7
:0503A4000FD5F0EA2274
:0F06EC00EFC394304007EF943A50028001C322CD
:1006D900EFC394094005EF940E4003BF2003D38074
:0306E90001C32228
:00000001FF
