:0300000002046295
:0C046200787FE4F6D8FD75815B0204A9E8
:1005C500011D00011F0014090000000000000000CB
:0C05D5000000000000000000000000001A
:0B07060012067412015212002680F847
:1006B700EF1FAA0670011E4A600DE4FDC3ED6480BA
:0706C70094FB50EC0D80F5DF
:0106CE002209
:0605E10001570001560065
:1006240030B00C30B10930B20630B303E4F55730C2
:10063400B00930B10630B20320B3327F017E00121C
:1006440006B730B00930B10630B20320B31FE55706
:10065400701B75570120B0037F012220B1037F0274
:100664002220B2037F032220B3037F04227F0022CF
:10015200120624EF24FE602214603114700302019F
:10016200E7240360030202441556C3E556648094F3
:10017200804003020244755603220556D3E55664B5
:100182008094835003020244E4F55622E556B401FA
:1001920018053FE53F7002053EC39418E53E6480B2
:1001A20094804005E4F53EF53FE556B40218054952
:1001B200E54970020548C3943CE548648094804058
:1001C20005E4F548F549E55664037076053DE53DDD
:1001D2007002053CC3943CE53C648094804063E437
:1001E200F53CF53D22E556B4011AE53F153F700294
:1001F200153E14D394FFE53E6480947F5006753E0D
:1002020000753F17E556B4021AE549154970021503
:100212004814D394FFE5486480947F5006754800E3
:1002220075493BE556B4031AE53D153D7002153C90
:1002320014D394FFE53C6480947F5006753C0075AE
:030242003D3B221F
:10000E00FEFDFBF7EFDFBF7FFF3F065B4F666D7DAB
:05001E00077F6F4000A8
:1005E700014A0008400000000000000000023A0035
:0D05F70000023E000A02480000023C000025
:100699007580FFD2A7C2A7EF90001793F580D2A665
:0E06A900C2A6ED90000E93F580D2A7C2A72244
:10002600E53BAE3A7803CEA2E713CE13D8F87803B1
:10003600C333CE33CED8F9FFC3E53B9FF54DE53A42
:100046009EF54CE4FBC3E53B94F4E53A6480948169
:10005600500DC3E53A6480948040047F0080027F9F
:10006600018F39E54C600302014AE54DB4080040B2
:100076000302014A900081F82828730200990200C1
:10008600B60200D40200D80200F40200D402011223
:1000960002012EE5396009E556B401047F0B800B99
:1000A600AE3EAF3F7C007D0A1202FEAB0702014A5C
:1000B600E5396009E556B401047F0B800DAE3EAF0D
:1000C6003F7C007D0A1202FEAF05AB0780767B0AF5
:1000D6008072E5396009E556B402047F0B800BAEE9
:1000E60048AF497C007D0A1202FEAB078056E5390F
:1000F6006009E556B402047F0B800DAE48AF497C1B
:10010600007D0A1202FEAF05AB078038E5396009AB
:10011600E556B403047F0B800BAE3CAF3D7C007DFF
:100126000A1202FEAB07801CE5396009E556B403E6
:10013600047F0B800DAE3CAF3D7C007D0A1202FEB3
:0B014600AF05AB077440254DF8A60381
:01015100228B
:100604000136000138001422000000000000000040
:0C061400000000000000000000000000DA
:030023000205656E
:10056500C0E0C0F0C083C082C0D075D000C000C05C
:0D05750001C002C003C004C005C006C007DD
:10058200309823AF99EF642A600CAE380538742294
:100592002EF8A607801074222538F876001204EE91
:0805A200753800755600C2987F
:1005AA00D007D006D005D004D003D002D001D000A5
:0B05BA00D0D0D082D083D0F0D0E0324F
:1004EE00E4F54EF54F7B007A0079221206CFC3E574
:1004FE004F9FE54E9E505F7422254FF8E624936081
:10050E001F24FA6032240B7043054FE54F7002052D
:10051E004E2422F9E4FAFB1203B48E3E8F3F802C58
:10052E00054FE54F7002054E2422F9E4FAFB120343
:10053E00B48E488F498015054FE54F7002054E2445
:10054E0022F9E4FAFB1203B48E3C8F3D054FE54FC2
:06055E007093054E808F32
:010564002274
:03062000015A007C
:10067400438780759850438901438920758BF475AD
:100684008DF4C2ABD28E758CFC758A67D2AFD2ACB6
:05069400D2A9D28C2266
:03000B00020245A9
:10024500C0E0C0F0C083C082C0D075D000C000C07F
:1002550001C002C003C004C005C006C007758CFC00
:10026500758A67053BE53B7002053AC394E8E53AB4
:1002750064809483404E753A00753B00053DE53D2D
:100285007002053C943CE53C648094804036753CA6
:1002950000753D000549E54970020548943CE5486F
:1002A50064809480401E754800754900053FE53F10
:1002B5007002053E9418E53E648094804006753EC4
:1002C50000753F00055BC3E55B648094884003755A
:1002D5005B007440255BF8E6FFAD5B120699D0071D
:1002E500D006D005D004D003D002D001D000D0D0A4
:0902F500D082D083D0F0D0E032B9
:10046E00020706E493A3F8E493A34003F68001F297
:10047E0008DFF48029E493A3F85407240CC8C3338F
:10048E00C4540F4420C8834004F456800146F6DF5E
:10049E00E4800B01020408102040809005C5E47E24
:1004AE00019360BCA3FF543F30E509541FFEE49353
:1004BE00A360010ECF54C025E060A840B8E493A31A
:1004CE00FAE493A3F8E493A3C8C582C8CAC583CA45
:1004DE00F0A3C8C582C8CAC583CADFE9DEE780BEFD
:0106230000D6
:1002FE00C2D5EC30E709B2D5E4C39DFDE49CFCEE1B
:10030E0030E715B2D5E4C39FFFE49EFE12035FC330
:10031E00E49DFDE49CFC800312035F30D507C3E42B
:06032E009FFFE49EFE2289
:1006CF00E4FFFE120334600C0FEF70010E09E970A6
:0506DF00F20A80EF2289
:1003B4008B508A518952AB50AA51A952120334FF6F
:1003C4001206E4500D74012552F552E43551F551ED
:1003D40080E4D200AB50AA51A952120334FF642B1B
:1003E4006004EFB42D1BAB500552E552AA517002C4
:1003F400055114F9120334642D6003D38001C392B0
:1004040000E4F553F554AB50AA51A952120334FF3A
:100414001206F75036AB50AA51A952120334FF33D7
:1004240095E0FEEF24D0FBEE34FFFAAE53AF547CDC
:10043400007D0A12034DEF2BF554EE3AF553740187
:100444002552F552E43551F55180BB300006AE53C8
:0E045400AF548009C3E49554FFE49553FE2293
:10033400BB010689828A83E0225002E722BBFE02C7
:09034400E32289828A83E49322FA
:10034D00EF8DF0A4A8F0CF8CF0A428CE8DF0A42EC4
:02035D00FE227E
:10035F00BC000BBE0029EF8DF084FFADF022E4CC82
:10036F00F875F008EF2FFFEE33FEEC33FCEE9DEC4B
:10037F00984005FCEE9DFE0FD5F0E9E4CEFD22ED91
:10038F00F8F5F0EE8420D21CFEADF075F008EF2FDB
:10039F00FFED33FD4007985006D5F0F222C398FDCC
:0503AF000FD5F0EA2269
:0F06F700EFC394304007EF943A50028001C322C2
:1006E400EFC394094005EF940E4003BF2003D38069
:0306F40001C3221D
:00000001FF
